{
  "contractName": "MakeYourResolutionStick",
  "abi": [
    {
      "constant": false,
      "inputs": [
        {
          "name": "_index",
          "type": "uint256"
        },
        {
          "name": "_hash",
          "type": "bytes32"
        }
      ],
      "name": "setGoalSucceeded",
      "outputs": [],
      "payable": false,
      "stateMutability": "nonpayable",
      "type": "function"
    },
    {
      "constant": false,
      "inputs": [],
      "name": "kill",
      "outputs": [],
      "payable": false,
      "stateMutability": "nonpayable",
      "type": "function"
    },
    {
      "constant": false,
      "inputs": [
        {
          "name": "_index",
          "type": "uint256"
        },
        {
          "name": "_hash",
          "type": "bytes32"
        }
      ],
      "name": "setGoalFailed",
      "outputs": [],
      "payable": false,
      "stateMutability": "nonpayable",
      "type": "function"
    },
    {
      "constant": true,
      "inputs": [
        {
          "name": "",
          "type": "bytes32"
        }
      ],
      "name": "goals",
      "outputs": [
        {
          "name": "hash",
          "type": "bytes32"
        },
        {
          "name": "owner",
          "type": "address"
        },
        {
          "name": "description",
          "type": "string"
        },
        {
          "name": "amount",
          "type": "uint256"
        },
        {
          "name": "supervisorEmail",
          "type": "string"
        },
        {
          "name": "creatorEmail",
          "type": "string"
        },
        {
          "name": "deadline",
          "type": "string"
        },
        {
          "name": "emailSent",
          "type": "bool"
        },
        {
          "name": "completed",
          "type": "bool"
        }
      ],
      "payable": false,
      "stateMutability": "view",
      "type": "function"
    },
    {
      "constant": false,
      "inputs": [
        {
          "name": "_description",
          "type": "string"
        },
        {
          "name": "_supervisorEmail",
          "type": "string"
        },
        {
          "name": "_creatorEmail",
          "type": "string"
        },
        {
          "name": "_deadline",
          "type": "string"
        }
      ],
      "name": "setGoal",
      "outputs": [
        {
          "name": "",
          "type": "bytes32"
        },
        {
          "name": "",
          "type": "address"
        },
        {
          "name": "",
          "type": "string"
        },
        {
          "name": "",
          "type": "uint256"
        },
        {
          "name": "",
          "type": "string"
        },
        {
          "name": "",
          "type": "string"
        },
        {
          "name": "",
          "type": "string"
        }
      ],
      "payable": true,
      "stateMutability": "payable",
      "type": "function"
    },
    {
      "constant": true,
      "inputs": [],
      "name": "owner",
      "outputs": [
        {
          "name": "",
          "type": "address"
        }
      ],
      "payable": false,
      "stateMutability": "view",
      "type": "function"
    },
    {
      "constant": false,
      "inputs": [
        {
          "name": "_index",
          "type": "uint256"
        },
        {
          "name": "_hash",
          "type": "bytes32"
        }
      ],
      "name": "setEmailSent",
      "outputs": [],
      "payable": false,
      "stateMutability": "nonpayable",
      "type": "function"
    },
    {
      "constant": true,
      "inputs": [],
      "name": "getGoalsCount",
      "outputs": [
        {
          "name": "count",
          "type": "uint256"
        }
      ],
      "payable": false,
      "stateMutability": "view",
      "type": "function"
    },
    {
      "constant": false,
      "inputs": [
        {
          "name": "newOwner",
          "type": "address"
        }
      ],
      "name": "transferOwnership",
      "outputs": [],
      "payable": false,
      "stateMutability": "nonpayable",
      "type": "function"
    },
    {
      "payable": true,
      "stateMutability": "payable",
      "type": "fallback"
    },
    {
      "anonymous": false,
      "inputs": [
        {
          "indexed": false,
          "name": "_owner",
          "type": "address"
        },
        {
          "indexed": false,
          "name": "_description",
          "type": "string"
        },
        {
          "indexed": false,
          "name": "_amount",
          "type": "uint256"
        },
        {
          "indexed": false,
          "name": "_supervisorEmail",
          "type": "string"
        },
        {
          "indexed": false,
          "name": "_creatorEmail",
          "type": "string"
        },
        {
          "indexed": false,
          "name": "_deadline",
          "type": "string"
        },
        {
          "indexed": false,
          "name": "_emailSent",
          "type": "bool"
        },
        {
          "indexed": false,
          "name": "_completed",
          "type": "bool"
        }
      ],
      "name": "setGoalEvent",
      "type": "event"
    },
    {
      "anonymous": false,
      "inputs": [
        {
          "indexed": false,
          "name": "hash",
          "type": "bytes32"
        },
        {
          "indexed": false,
          "name": "_completed",
          "type": "bool"
        }
      ],
      "name": "setGoalSucceededEvent",
      "type": "event"
    },
    {
      "anonymous": false,
      "inputs": [
        {
          "indexed": false,
          "name": "hash",
          "type": "bytes32"
        },
        {
          "indexed": false,
          "name": "_completed",
          "type": "bool"
        }
      ],
      "name": "setGoalFailedEvent",
      "type": "event"
    },
    {
      "anonymous": false,
      "inputs": [
        {
          "indexed": true,
          "name": "previousOwner",
          "type": "address"
        },
        {
          "indexed": true,
          "name": "newOwner",
          "type": "address"
        }
      ],
      "name": "OwnershipTransferred",
      "type": "event"
    }
  ],
  "bytecode": "0x6060604052336000806101000a81548173ffffffffffffffffffffffffffffffffffffffff021916908373ffffffffffffffffffffffffffffffffffffffff1602179055506119bd806100536000396000f300606060405260043610610099576000357c0100000000000000000000000000000000000000000000000000000000900463ffffffff168063197b42b01461009b57806341c0e1b5146100cb5780636052dc52146100e0578063720d1760146101105780638175e65c146103c75780638da5cb5b146106e8578063acf3a2501461073d578063d0d511f91461076d578063f2fde38b14610796575b005b34156100a657600080fd5b6100c96004808035906020019091908035600019169060200190919050506107cf565b005b34156100d657600080fd5b6100de6109af565b005b34156100eb57600080fd5b61010e600480803590602001909190803560001916906020019091905050610a44565b005b341561011b57600080fd5b610135600480803560001916906020019091905050610bad565b604051808a600019166000191681526020018973ffffffffffffffffffffffffffffffffffffffff1673ffffffffffffffffffffffffffffffffffffffff16815260200180602001888152602001806020018060200180602001871515151581526020018615151515815260200185810385528c8181546001816001161561010002031660029004815260200191508054600181600116156101000203166002900480156102245780601f106101f957610100808354040283529160200191610224565b820191906000526020600020905b81548152906001019060200180831161020757829003601f168201915b505085810384528a8181546001816001161561010002031660029004815260200191508054600181600116156101000203166002900480156102a75780601f1061027c576101008083540402835291602001916102a7565b820191906000526020600020905b81548152906001019060200180831161028a57829003601f168201915b505085810383528981815460018160011615610100020316600290048152602001915080546001816001161561010002031660029004801561032a5780601f106102ff5761010080835404028352916020019161032a565b820191906000526020600020905b81548152906001019060200180831161030d57829003601f168201915b50508581038252888181546001816001161561010002031660029004815260200191508054600181600116156101000203166002900480156103ad5780601f10610382576101008083540402835291602001916103ad565b820191906000526020600020905b81548152906001019060200180831161039057829003601f168201915b50509d505050505050505050505050505060405180910390f35b6104e0600480803590602001908201803590602001908080601f0160208091040260200160405190810160405280939291908181526020018383808284378201915050505050509190803590602001908201803590602001908080601f0160208091040260200160405190810160405280939291908181526020018383808284378201915050505050509190803590602001908201803590602001908080601f0160208091040260200160405190810160405280939291908181526020018383808284378201915050505050509190803590602001908201803590602001908080601f01602080910402602001604051908101604052809392919081815260200183838082843782019150505050505091905050610c31565b6040518088600019166000191681526020018773ffffffffffffffffffffffffffffffffffffffff1673ffffffffffffffffffffffffffffffffffffffff1681526020018060200186815260200180602001806020018060200185810385528a818151815260200191508051906020019080838360005b83811015610572578082015181840152602081019050610557565b50505050905090810190601f16801561059f5780820380516001836020036101000a031916815260200191505b50858103845288818151815260200191508051906020019080838360005b838110156105d85780820151818401526020810190506105bd565b50505050905090810190601f1680156106055780820380516001836020036101000a031916815260200191505b50858103835287818151815260200191508051906020019080838360005b8381101561063e578082015181840152602081019050610623565b50505050905090810190601f16801561066b5780820380516001836020036101000a031916815260200191505b50858103825286818151815260200191508051906020019080838360005b838110156106a4578082015181840152602081019050610689565b50505050905090810190601f1680156106d15780820380516001836020036101000a031916815260200191505b509b50505050505050505050505060405180910390f35b34156106f357600080fd5b6106fb61148b565b604051808273ffffffffffffffffffffffffffffffffffffffff1673ffffffffffffffffffffffffffffffffffffffff16815260200191505060405180910390f35b341561074857600080fd5b61076b6004808035906020019091908035600019169060200190919050506114b0565b005b341561077857600080fd5b6107806115a8565b6040518082815260200191505060405180910390f35b34156107a157600080fd5b6107cd600480803573ffffffffffffffffffffffffffffffffffffffff169060200190919050506115b5565b005b6000809054906101000a900473ffffffffffffffffffffffffffffffffffffffff1673ffffffffffffffffffffffffffffffffffffffff163373ffffffffffffffffffffffffffffffffffffffff1614151561082a57600080fd5b60006001600083600019166000191681526020019081526020016000206003015411151561085457fe5b6001806000836000191660001916815260200190815260200160002060070160016101000a81548160ff021916908315150217905550600160028381548110151561089b57fe5b906000526020600020906008020160070160016101000a81548160ff02191690831515021790555060016000826000191660001916815260200190815260200160002060010160009054906101000a900473ffffffffffffffffffffffffffffffffffffffff1673ffffffffffffffffffffffffffffffffffffffff166108fc600160008460001916600019168152602001908152602001600020600301549081150290604051600060405180830381858888f19350505050151561095f57600080fd5b7fc3374a5747951896bc065ffb7b6c15743ff5db3ce88ff00f3ab915417cd27088816001604051808360001916600019168152602001821515151581526020019250505060405180910390a15050565b6000809054906101000a900473ffffffffffffffffffffffffffffffffffffffff1673ffffffffffffffffffffffffffffffffffffffff163373ffffffffffffffffffffffffffffffffffffffff16141515610a0a57600080fd5b6000809054906101000a900473ffffffffffffffffffffffffffffffffffffffff1673ffffffffffffffffffffffffffffffffffffffff16ff5b600060016000836000191660001916815260200190815260200160002060030154111515610a6e57fe5b600060016000836000191660001916815260200190815260200160002060070160016101000a81548160ff0219169083151502179055506000600283815481101515610ab657fe5b906000526020600020906008020160070160016101000a81548160ff0219169083151502179055506000809054906101000a900473ffffffffffffffffffffffffffffffffffffffff1673ffffffffffffffffffffffffffffffffffffffff166108fc600160008460001916600019168152602001908152602001600020600301549081150290604051600060405180830381858888f193505050501515610b5d57600080fd5b7f8c630ea441c9c8742a5273db9132d65d2df24b053dee7e4768f4789e9f3f9d05816000604051808360001916600019168152602001821515151581526020019250505060405180910390a15050565b60016020528060005260406000206000915090508060000154908060010160009054906101000a900473ffffffffffffffffffffffffffffffffffffffff169080600201908060030154908060040190806005019080600601908060070160009054906101000a900460ff16908060070160019054906101000a900460ff16905089565b600080610c3c61170a565b6000610c4661170a565b610c4e61170a565b610c5661170a565b6000610c6061171e565b600034111515610c6f57600080fd5b6040518060000190506040518091039020600019168d6040518082805190602001908083835b602083101515610cba5780518252602082019150602081019050602083039250610c95565b6001836020036101000a03801982511681845116808217855250505050505090500191505060405180910390206000191614151515610cf857600080fd5b6040518060000190506040518091039020600019168b6040518082805190602001908083835b602083101515610d435780518252602082019150602081019050602083039250610d1e565b6001836020036101000a03801982511681845116808217855250505050505090500191505060405180910390206000191614151515610d8157600080fd5b6040518060000190506040518091039020600019168a6040518082805190602001908083835b602083101515610dcc5780518252602082019150602081019050602083039250610da7565b6001836020036101000a03801982511681845116808217855250505050505090500191505060405180910390206000191614151515610e0a57600080fd5b338d348c604051808573ffffffffffffffffffffffffffffffffffffffff1673ffffffffffffffffffffffffffffffffffffffff166c0100000000000000000000000002815260140184805190602001908083835b602083101515610e845780518252602082019150602081019050602083039250610e5f565b6001836020036101000a03801982511681845116808217855250505050505090500183815260200182805190602001908083835b602083101515610edd5780518252602082019150602081019050602083039250610eb8565b6001836020036101000a0380198251168184511680821785525050505050509050019450505050506040518091039020915061012060405190810160405280836000191681526020013373ffffffffffffffffffffffffffffffffffffffff1681526020018e81526020013481526020018d81526020018c81526020018b8152602001600015158152602001600015158152509050806001600084600019166000191681526020019081526020016000206000820151816000019060001916905560208201518160010160006101000a81548173ffffffffffffffffffffffffffffffffffffffff021916908373ffffffffffffffffffffffffffffffffffffffff16021790555060408201518160020190805190602001906110019291906117a0565b506060820151816003015560808201518160040190805190602001906110289291906117a0565b5060a08201518160050190805190602001906110459291906117a0565b5060c08201518160060190805190602001906110629291906117a0565b5060e08201518160070160006101000a81548160ff0219169083151502179055506101008201518160070160016101000a81548160ff021916908315150217905550905050600280548060010182816110bb9190611820565b916000526020600020906008020160008390919091506000820151816000019060001916905560208201518160010160006101000a81548173ffffffffffffffffffffffffffffffffffffffff021916908373ffffffffffffffffffffffffffffffffffffffff16021790555060408201518160020190805190602001906111449291906117a0565b5060608201518160030155608082015181600401908051906020019061116b9291906117a0565b5060a08201518160050190805190602001906111889291906117a0565b5060c08201518160060190805190602001906111a59291906117a0565b5060e08201518160070160006101000a81548160ff0219169083151502179055506101008201518160070160016101000a81548160ff0219169083151502179055505050507fbe51f18615f8b29499c081c3ac30fc5c4819fbd6534d3e9dd0cbf31db59eb1b381602001518260400151836060015184608001518560a001518660c001518760e00151886101000151604051808973ffffffffffffffffffffffffffffffffffffffff1673ffffffffffffffffffffffffffffffffffffffff16815260200180602001888152602001806020018060200180602001871515151581526020018615151515815260200185810385528c818151815260200191508051906020019080838360005b838110156112cc5780820151818401526020810190506112b1565b50505050905090810190601f1680156112f95780820380516001836020036101000a031916815260200191505b5085810384528a818151815260200191508051906020019080838360005b83811015611332578082015181840152602081019050611317565b50505050905090810190601f16801561135f5780820380516001836020036101000a031916815260200191505b50858103835289818151815260200191508051906020019080838360005b8381101561139857808201518184015260208101905061137d565b50505050905090810190601f1680156113c55780820380516001836020036101000a031916815260200191505b50858103825288818151815260200191508051906020019080838360005b838110156113fe5780820151818401526020810190506113e3565b50505050905090810190601f16801561142b5780820380516001836020036101000a031916815260200191505b509c5050505050505050505050505060405180910390a18181602001518260400151836060015184608001518560a001518660c0015184945082925081915080905098509850985098509850985098505050949950949992975094509450565b6000809054906101000a900473ffffffffffffffffffffffffffffffffffffffff1681565b6000809054906101000a900473ffffffffffffffffffffffffffffffffffffffff1673ffffffffffffffffffffffffffffffffffffffff163373ffffffffffffffffffffffffffffffffffffffff1614151561150b57600080fd5b60006001600083600019166000191681526020019081526020016000206003015411151561153557fe5b6001806000836000191660001916815260200190815260200160002060070160006101000a81548160ff021916908315150217905550600160028381548110151561157c57fe5b906000526020600020906008020160070160006101000a81548160ff0219169083151502179055505050565b6000600280549050905090565b6000809054906101000a900473ffffffffffffffffffffffffffffffffffffffff1673ffffffffffffffffffffffffffffffffffffffff163373ffffffffffffffffffffffffffffffffffffffff1614151561161057600080fd5b600073ffffffffffffffffffffffffffffffffffffffff168173ffffffffffffffffffffffffffffffffffffffff161415151561164c57600080fd5b8073ffffffffffffffffffffffffffffffffffffffff166000809054906101000a900473ffffffffffffffffffffffffffffffffffffffff1673ffffffffffffffffffffffffffffffffffffffff167f8be0079c531659141344cd1fd0a4f28419497f9722a3daafe3b4186f6b6457e060405160405180910390a3806000806101000a81548173ffffffffffffffffffffffffffffffffffffffff021916908373ffffffffffffffffffffffffffffffffffffffff16021790555050565b602060405190810160405280600081525090565b6101206040519081016040528060008019168152602001600073ffffffffffffffffffffffffffffffffffffffff16815260200161175a611852565b81526020016000815260200161176e611852565b815260200161177b611852565b8152602001611788611852565b81526020016000151581526020016000151581525090565b828054600181600116156101000203166002900490600052602060002090601f016020900481019282601f106117e157805160ff191683800117855561180f565b8280016001018555821561180f579182015b8281111561180e5782518255916020019190600101906117f3565b5b50905061181c9190611866565b5090565b81548183558181151161184d5760080281600802836000526020600020918201910161184c919061188b565b5b505050565b602060405190810160405280600081525090565b61188891905b8082111561188457600081600090555060010161186c565b5090565b90565b61194691905b80821115611942576000808201600090556001820160006101000a81549073ffffffffffffffffffffffffffffffffffffffff02191690556002820160006118d99190611949565b60038201600090556004820160006118f19190611949565b6005820160006119019190611949565b6006820160006119119190611949565b6007820160006101000a81549060ff02191690556007820160016101000a81549060ff021916905550600801611891565b5090565b90565b50805460018160011615610100020316600290046000825580601f1061196f575061198e565b601f01602090049060005260206000209081019061198d9190611866565b5b505600a165627a7a72305820438a0ec482cbbe144ffe946923328237c64bf5272006f9349b2c817879a846720029",
  "source": "pragma solidity ^0.4.4;\n\nimport 'zeppelin-solidity/contracts/ownership/Ownable.sol';\n\ncontract MakeYourResolutionStick is Ownable {\n    struct Goal {\n    \tbytes32 hash;\n        address owner; // goal owner addr\n        string description; // set goal description\n        uint amount; // set goal amount\n        string supervisorEmail; // email of friend\n        string creatorEmail; // email of friend\n        string deadline;\n        bool emailSent;\n        bool completed;\n    }\n\n    // address owner;\n\tmapping (bytes32 => Goal) public goals;\n\tGoal[] activeGoals;\n\n\taddress test;\n\n\t// MakeYourResolutionStick.deployed().then(function(instance) {app=instance;})\n\t// function MakeYourResolutionStick() {\n\t// \towner = msg.sender;\n\t// }\n\n\t// Events\n    event setGoalEvent (\n    \taddress _owner,\n        string _description,\n        uint _amount,\n        string _supervisorEmail,\n        string _creatorEmail,\n        string _deadline,\n        bool _emailSent,\n        bool _completed\n    );\n\n    event setGoalSucceededEvent(bytes32 hash, bool _completed);\n    event setGoalFailedEvent(bytes32 hash, bool _completed);\n\n\t// app.setGoal(\"HODL ETH\", \"random@eth.com\", \"random@eth.com.com\", \"2017-12-12\", {value: web3.toWei(11.111, 'ether')})\n\t// app.setGoal(\"HODL ETH\", \"random@eth.com.com\", \"random@eth.com.com\", \"2017-12-12\", {value: web3.toWei(11.111, 'ether'), from: web3.eth.accounts[1]})\n\tfunction setGoal(string _description, string _supervisorEmail, string _creatorEmail, string _deadline) payable returns (bytes32, address, string, uint, string, string, string) {\n\t\trequire(msg.value > 0);\n\t\trequire(keccak256(_description) != keccak256(''));\n\t\trequire(keccak256(_creatorEmail) != keccak256(''));\n\t\trequire(keccak256(_deadline) != keccak256(''));\n\n\t\tbytes32 hash = keccak256(msg.sender, _description, msg.value, _deadline);\n\n\t\tGoal memory goal = Goal({\n\t\t\thash: hash,\n\t\t\towner: msg.sender,\n\t\t\tdescription: _description,\n\t\t\tamount: msg.value,\n\t\t\tsupervisorEmail: _supervisorEmail,\n\t\t\tcreatorEmail: _creatorEmail,\n\t\t\tdeadline: _deadline,\n\t\t\temailSent: false,\n\t\t\tcompleted: false\n\t\t});\n\n\t\tgoals[hash] = goal;\n\t\tactiveGoals.push(goal);\n\n\t\tsetGoalEvent(goal.owner, goal.description, goal.amount, goal.supervisorEmail, goal.creatorEmail, goal.deadline, goal.emailSent, goal.completed);\n\n\t\treturn (hash, goal.owner, goal.description, goal.amount, goal.supervisorEmail, goal.creatorEmail, goal.deadline);\n\t}\n\n\tfunction getGoalsCount() constant returns (uint count) {\n\t    return activeGoals.length;\n\t}\n\n\t// app.setEmailSent(\"0x..\", {from: web3.eth.accounts[1]})\n\tfunction setEmailSent(uint _index, bytes32 _hash) onlyOwner {\n\t\tassert(goals[_hash].amount > 0);\n\n\t\tgoals[_hash].emailSent = true;\n\t\tactiveGoals[_index].emailSent = true;\n\t}\n\n\tfunction setGoalSucceeded(uint _index, bytes32 _hash) onlyOwner {\n\t\tassert(goals[_hash].amount > 0);\n\n\t\tgoals[_hash].completed = true;\n\t\tactiveGoals[_index].completed = true;\n\n\t\tgoals[_hash].owner.transfer(goals[_hash].amount); // send ether back to person who set the goal\n\n\t\tsetGoalSucceededEvent(_hash, true);\n\t}\n\n\n\tfunction setGoalFailed(uint _index, bytes32 _hash) {\n\t\tassert(goals[_hash].amount > 0);\n\t\t// assert(goals[_hash].emailSent == true);\n\n\t\tgoals[_hash].completed = false;\n\t\tactiveGoals[_index].completed = false;\n\n\t\towner.transfer(goals[_hash].amount); // send ether to contract owner\n\n\t\tsetGoalFailedEvent(_hash, false);\n\t}\n\n\t// Fallback function in case someone sends ether to the contract so it doesn't get lost\n\tfunction() payable {}\n\n    function kill() onlyOwner { \n    \tselfdestruct(owner);\n    }\n}\n\n// web3.fromWei(web3.eth.getBalance(web3.eth.accounts[1]).toNumber(), 'ether')\n",
  "sourcePath": "/Users/jarvis/ethereum/go-freaking-do-it/contracts/MakeYourResolutionStick.sol",
  "compiler": {
    "name": "solc",
    "version": "0.4.18+commit.9cf6e910.Emscripten.clang"
  },
  "schemaVersion": "1.0.1",
  "updatedAt": "2017-12-28T14:43:49.217Z"
}